{
    "contractName": "StrategyExecutor",
    "abi": [
        {
            "inputs": [],
            "name": "PROXY_AUTH_ADDR",
            "outputs": [
                {
                    "internalType": "address",
                    "name": "",
                    "type": "address"
                }
            ],
            "stateMutability": "view",
            "type": "function"
        },
        {
            "inputs": [],
            "name": "REGISTRY_ADDR",
            "outputs": [
                {
                    "internalType": "address",
                    "name": "",
                    "type": "address"
                }
            ],
            "stateMutability": "view",
            "type": "function"
        },
        {
            "inputs": [
                {
                    "internalType": "uint256",
                    "name": "_strategyId",
                    "type": "uint256"
                }
            ],
            "name": "checkCallerAuth",
            "outputs": [],
            "stateMutability": "view",
            "type": "function"
        },
        {
            "inputs": [
                {
                    "internalType": "uint256",
                    "name": "_strategyId",
                    "type": "uint256"
                },
                {
                    "components": [
                        {
                            "internalType": "uint256",
                            "name": "templateId",
                            "type": "uint256"
                        },
                        {
                            "internalType": "address",
                            "name": "proxy",
                            "type": "address"
                        },
                        {
                            "internalType": "bytes[][]",
                            "name": "actionData",
                            "type": "bytes[][]"
                        },
                        {
                            "internalType": "bytes[][]",
                            "name": "triggerData",
                            "type": "bytes[][]"
                        },
                        {
                            "internalType": "bool",
                            "name": "active",
                            "type": "bool"
                        },
                        {
                            "internalType": "uint256",
                            "name": "posInUserArr",
                            "type": "uint256"
                        }
                    ],
                    "internalType": "struct StrategyData.Strategy",
                    "name": "_strategy",
                    "type": "tuple"
                },
                {
                    "internalType": "bytes[][]",
                    "name": "_triggerCallData",
                    "type": "bytes[][]"
                },
                {
                    "internalType": "contract Subscriptions",
                    "name": "_sub",
                    "type": "address"
                }
            ],
            "name": "checkTriggers",
            "outputs": [],
            "stateMutability": "nonpayable",
            "type": "function"
        },
        {
            "inputs": [
                {
                    "internalType": "uint256",
                    "name": "_strategyId",
                    "type": "uint256"
                },
                {
                    "internalType": "bytes[][]",
                    "name": "_triggerCallData",
                    "type": "bytes[][]"
                },
                {
                    "internalType": "bytes[][]",
                    "name": "_actionsCallData",
                    "type": "bytes[][]"
                }
            ],
            "name": "executeStrategy",
            "outputs": [],
            "stateMutability": "nonpayable",
            "type": "function"
        },
        {
            "inputs": [],
            "name": "gasToken",
            "outputs": [
                {
                    "internalType": "contract IGasToken",
                    "name": "",
                    "type": "address"
                }
            ],
            "stateMutability": "view",
            "type": "function"
        },
        {
            "inputs": [],
            "name": "registry",
            "outputs": [
                {
                    "internalType": "contract DFSRegistry",
                    "name": "",
                    "type": "address"
                }
            ],
            "stateMutability": "view",
            "type": "function"
        }
    ],
    "bytecode": "608060405234801561001057600080fd5b50611482806100206000396000f3fe608060405234801561001057600080fd5b506004361061007d5760003560e01c80638be045521161005b5780638be04552146100bd57806394338bcf146100d0578063c91d59fe146100e3578063e4dde9ab146100b55761007d565b80631d66258b14610082578063462399ff146100975780637b103999146100b5575b600080fd5b610095610090366004610f9e565b6100eb565b005b61009f610335565b6040516100ac919061119a565b60405180910390f35b61009f61034d565b6100956100cb366004610f34565b610365565b6100956100de366004610f1c565b610620565b61009f61076b565b604051635358b27b60e01b81526060906001600160a01b03831690635358b27b9061011a9088906004016111e3565b60006040518083038186803b15801561013257600080fd5b505afa158015610146573d6000803e3d6000fd5b505050506040513d6000823e601f3d908101601f1916820160405261016e9190810190610e48565b60200151905060005b815181101561032d576000735fbdb2315678afecb367f032d93f642f64180aa36001600160a01b0316634ccee9b68484815181106101b157fe5b60200260200101516040518263ffffffff1660e01b81526004016101d591906111e3565b60206040518083038186803b1580156101ed57600080fd5b505afa158015610201573d6000803e3d6000fd5b505050506040513d601f19601f820116820180604052508101906102259190610d42565b90506000816001600160a01b03166391a973c687858151811061024457fe5b602002602001015160008151811061025857fe5b60200260200101518960600151868151811061027057fe5b602002602001015160008151811061028457fe5b60200260200101516040518363ffffffff1660e01b81526004016102a99291906111ec565b602060405180830381600087803b1580156102c357600080fd5b505af11580156102d7573d6000803e3d6000fd5b505050506040513d601f19601f820116820180604052508101906102fb9190610d65565b9050806103235760405162461bcd60e51b815260040161031a906112e5565b60405180910390fd5b5050600101610177565b505050505050565b73e7f1725e7734ce288f8367e1bb143e90bb3f051281565b735fbdb2315678afecb367f032d93f642f64180aa381565b60005a60405163266774db60e11b8152909150600090735fbdb2315678afecb367f032d93f642f64180aa390634ccee9b6906103c5907feac547ac11fc38e82499a2e59a17d1ede8f5d4ed20a75066cc8b814433c337ac906004016111e3565b60206040518083038186803b1580156103dd57600080fd5b505afa1580156103f1573d6000803e3d6000fd5b505050506040513d601f19601f820116820180604052508101906104159190610d42565b905061041f61098c565b6040516333f0330d60e21b81526001600160a01b0383169063cfc0cc349061044b9089906004016111e3565b60006040518083038186803b15801561046357600080fd5b505afa158015610477573d6000803e3d6000fd5b505050506040513d6000823e601f3d908101601f1916820160405261049f9190810190610d81565b905080608001516104c25760405162461bcd60e51b815260040161031a90611314565b6104cb86610620565b6104d7868287856100eb565b6104e281858461077e565b5060009050601036025a836152080103019050600061a0aa8261374a018161050657fe5b049050806eb3f879cb30fe243b4dfee438691c046001600160a01b03166370a08231306040518263ffffffff1660e01b815260040180826001600160a01b0316815260200191505060206040518083038186803b15801561056657600080fd5b505afa15801561057a573d6000803e3d6000fd5b505050506040513d602081101561059057600080fd5b50511061032d576eb3f879cb30fe243b4dfee438691c046001600160a01b031663d8ccd0f3826040518263ffffffff1660e01b815260040180828152602001915050602060405180830381600087803b1580156105ec57600080fd5b505af1158015610600573d6000803e3d6000fd5b505050506040513d602081101561061657600080fd5b5050505050505050565b60405163266774db60e11b8152600090735fbdb2315678afecb367f032d93f642f64180aa390634ccee9b69061067a907fa267eb4d9b7fe0e2510fe482448f14259481087e88803ea527f2c1b9ff5c6fe4906004016111e3565b60206040518083038186803b15801561069257600080fd5b505afa1580156106a6573d6000803e3d6000fd5b505050506040513d601f19601f820116820180604052508101906106ca9190610d42565b6040516356c3163760e01b81529091506001600160a01b038216906356c31637906106fb908590339060040161137b565b60206040518083038186803b15801561071357600080fd5b505afa158015610727573d6000803e3d6000fd5b505050506040513d601f19601f8201168201806040525081019061074b9190610d65565b6107675760405162461bcd60e51b815260040161031a90611344565b5050565b6eb3f879cb30fe243b4dfee438691c0481565b60405163266774db60e11b8152600090735fbdb2315678afecb367f032d93f642f64180aa390634ccee9b6906107d8907fb4c0e6850d4473879b53c66c0f1541b4479c92060d0bae0e3211f0a72544c959906004016111e3565b60206040518083038186803b1580156107f057600080fd5b505afa158015610804573d6000803e3d6000fd5b505050506040513d601f19601f820116820180604052508101906108289190610d42565b90506108326109cd565b8451604051630c550f3d60e21b81526001600160a01b038516916331543cf49161085f91906004016111e3565b60006040518083038186803b15801561087757600080fd5b505afa15801561088b573d6000803e3d6000fd5b505050506040513d6000823e601f3d908101601f191682016040526108b39190810190610e48565b905073e7f1725e7734ce288f8367e1bb143e90bb3f05126001600160a01b0316638a0e833f348760200151858560000151898b6040015188606001518960400151604051602401610908959493929190611211565b60408051601f198184030181529181526020820180516001600160e01b031663353cfde560e01b1790525160e086901b6001600160e01b0319168152610953939291906004016111ae565b6000604051808303818588803b15801561096c57600080fd5b505af1158015610980573d6000803e3d6000fd5b50505050505050505050565b6040518060c001604052806000815260200160006001600160a01b031681526020016060815260200160608152602001600015158152602001600081525090565b6040518060800160405280606081526020016060815260200160608152602001606081525090565b8035610a0081611426565b919050565b8051610a0081611426565b600082601f830112610a20578081fd5b610a32610a2d83356113b6565b611392565b82358152905060208082019080840160005b8535811015610afd578135860187603f820112610a6057600080fd5b83810135610a70610a2d826113b6565b818152858101906040840160005b84811015610ae657813586018d605f820112610a9957600080fd5b6040810135610aaa610a2d826113d4565b8181528f6060838501011115610abf57600080fd5b81606084018d83013760009181018c01919091528552509288019290880190600101610a7e565b505087525050509282019290820190600101610a44565b5050505092915050565b600082601f830112610b17578081fd5b8151610b25610a2d826113b6565b818152915060208083019084810160005b84811015610bb1578151870188603f820112610b5157600080fd5b83810151610b61610a2d826113b6565b81815285810190604084810160005b85811015610b9957610b878f8484518a0101610cf5565b85529389019390890190600101610b70565b50505087525050509282019290820190600101610b36565b505050505092915050565b600082601f830112610bcc578081fd5b8151610bda610a2d826113b6565b818152915060208083019084810160005b84811015610bb1578151870188603f820112610c0657600080fd5b83810151610c16610a2d826113b6565b818152858101906040848101888502860182018e1015610c3557600080fd5b600095505b84861015610c6a578051915060ff82168214610c5557600080fd5b81845260019590950194928801928801610c3a565b505087525050509282019290820190600101610beb565b600082601f830112610c91578081fd5b8151610c9f610a2d826113b6565b818152915060208083019084810181840286018201871015610cc057600080fd5b60005b84811015610bb157815184529282019290820190600101610cc3565b8035610a008161143e565b8051610a008161143e565b600082601f830112610d05578081fd5b8151610d13610a2d826113d4565b9150808252836020828501011115610d2a57600080fd5b610d3b8160208401602086016113f6565b5092915050565b600060208284031215610d53578081fd5b8151610d5e81611426565b9392505050565b600060208284031215610d76578081fd5b8151610d5e8161143e565b600060208284031215610d92578081fd5b815167ffffffffffffffff80821115610da9578283fd5b9083019060c08286031215610dbc578283fd5b610dc660c0611392565b82518152610dd660208401610a05565b6020820152604083015182811115610dec578485fd5b610df887828601610b07565b604083015250606083015182811115610e0f578485fd5b610e1b87828601610b07565b606083015250610e2d60808401610cea565b608082015260a083015160a082015280935050505092915050565b600060208284031215610e59578081fd5b815167ffffffffffffffff80821115610e70578283fd5b9083019060808286031215610e83578283fd5b610e8d6080611392565b825182811115610e9b578485fd5b610ea787828601610cf5565b825250602083015182811115610ebb578485fd5b610ec787828601610c81565b602083015250604083015182811115610ede578485fd5b610eea87828601610c81565b604083015250606083015182811115610f01578485fd5b610f0d87828601610bbc565b60608301525095945050505050565b600060208284031215610f2d578081fd5b5035919050565b600080600060608486031215610f48578182fd5b83359250602084013567ffffffffffffffff80821115610f66578384fd5b610f7287838801610a10565b93506040860135915080821115610f87578283fd5b50610f9486828701610a10565b9150509250925092565b60008060008060808587031215610fb3578182fd5b84359350602085013567ffffffffffffffff80821115610fd1578384fd5b9086019060c08289031215610fe4578384fd5b610fee60c0611392565b82358152610ffe602084016109f5565b6020820152604083013582811115611014578586fd5b6110208a828601610a10565b604083015250606083013582811115611037578586fd5b6110438a828601610a10565b60608301525061105560808401610cdf565b608082015260a083013560a082015280955050604087013591508082111561107b578384fd5b5061108887828801610a10565b925050611097606086016109f5565b905092959194509250565b6000815180845260208085018081965082840281019150828601855b85811015611127578284038952815180518086529086019086860190878102870188018a5b8281101561111157601f198983030184526110ff82865161116e565b948a0194938a019391506001016110e3565b509b88019b9650505091850191506001016110be565b5091979650505050505050565b6000815180845260208085019450808401835b8381101561116357815187529582019590820190600101611147565b509495945050505050565b600081518084526111868160208601602086016113f6565b601f01601f19169290920160200192915050565b6001600160a01b0391909116815260200190565b6001600160a01b038481168252831660208201526060604082018190526000906111da9083018461116e565b95945050505050565b90815260200190565b6000604082526111ff604083018561116e565b82810360208401526111da818561116e565b600060a0825261122460a083018861116e565b60208382038185015261123782896110a2565b9150838203604085015261124b82886110a2565b848103606086015286518082529092508183019082810284018301838901865b838110156112c157868303601f190185528151805180855290870190878501908a5b818110156112ac57835160ff168352928901929189019160010161128d565b5050958701959350509085019060010161126b565b505086810360808801526112d58189611134565b9c9b505050505050505050505050565b602080825260159082015274151c9a59d9d95c881b9bdd081858dd1a5d985d1959605a1b604082015260600190565b6020808252601690820152755374726174656779206973206e6f742061637469766560501b604082015260600190565b6020808252601a908201527f6d73672e73656e646572206973206e6f7420617070726f766564000000000000604082015260600190565b9182526001600160a01b0316602082015260400190565b60405181810167ffffffffffffffff811182821017156113ae57fe5b604052919050565b600067ffffffffffffffff8211156113ca57fe5b5060209081020190565b600067ffffffffffffffff8211156113e857fe5b50601f01601f191660200190565b60005b838110156114115781810151838201526020016113f9565b83811115611420576000848401525b50505050565b6001600160a01b038116811461143b57600080fd5b50565b801515811461143b57600080fdfea26469706673582212200ffbfc1e0f8c0ce6bc4e998e1120965908a782cd865c4663b8f17eb7cac16bdd64736f6c63430007040033",
    "sourcePath": "/Users/nenadpalinkasevic/Desktop/blockchain/defisaver-v3-contracts/contracts/core/StrategyExecutor.sol",
    "compiler": {
        "name": "solc",
        "version": "0.7.4+commit.3f05b770"
    },
    "functionHashes": {
        "PROXY_AUTH_ADDR()": "462399ff",
        "REGISTRY_ADDR()": "e4dde9ab",
        "checkCallerAuth(uint256)": "94338bcf",
        "checkTriggers(uint256,(uint256,address,bytes[][],bytes[][],bool,uint256),bytes[][],address)": "1d66258b",
        "executeStrategy(uint256,bytes[][],bytes[][])": "8be04552",
        "gasToken()": "c91d59fe",
        "registry()": "7b103999"
    },
    "gasEstimates": {
        "creation": {
            "codeDepositCost": "1050000",
            "executionCost": "1094",
            "totalCost": "1051094"
        },
        "external": {
            "PROXY_AUTH_ADDR()": "275",
            "REGISTRY_ADDR()": "318",
            "checkCallerAuth(uint256)": "infinite",
            "checkTriggers(uint256,(uint256,address,bytes[][],bytes[][],bool,uint256),bytes[][],address)": "infinite",
            "executeStrategy(uint256,bytes[][],bytes[][])": "infinite",
            "gasToken()": "296",
            "registry()": "297"
        },
        "internal": {
            "callActions(struct StrategyData.Strategy memory,bytes memory[] memory[] memory,contract Subscriptions)": "infinite"
        }
    }
}