{
    "contractName": "Subscriptions",
    "abi": [
        {
            "inputs": [
                {
                    "internalType": "uint256",
                    "name": "_templateId",
                    "type": "uint256"
                },
                {
                    "internalType": "bool",
                    "name": "_active",
                    "type": "bool"
                },
                {
                    "internalType": "bytes[][]",
                    "name": "_actionData",
                    "type": "bytes[][]"
                },
                {
                    "internalType": "bytes[][]",
                    "name": "_triggerData",
                    "type": "bytes[][]"
                }
            ],
            "name": "createStrategy",
            "outputs": [
                {
                    "internalType": "uint256",
                    "name": "",
                    "type": "uint256"
                }
            ],
            "stateMutability": "nonpayable",
            "type": "function"
        },
        {
            "inputs": [
                {
                    "internalType": "string",
                    "name": "_name",
                    "type": "string"
                },
                {
                    "internalType": "bytes32[]",
                    "name": "_triggerIds",
                    "type": "bytes32[]"
                },
                {
                    "internalType": "bytes32[]",
                    "name": "_actionIds",
                    "type": "bytes32[]"
                },
                {
                    "internalType": "uint8[][]",
                    "name": "_paramMapping",
                    "type": "uint8[][]"
                }
            ],
            "name": "createTemplate",
            "outputs": [
                {
                    "internalType": "uint256",
                    "name": "",
                    "type": "uint256"
                }
            ],
            "stateMutability": "nonpayable",
            "type": "function"
        },
        {
            "inputs": [
                {
                    "internalType": "uint256",
                    "name": "_page",
                    "type": "uint256"
                },
                {
                    "internalType": "uint256",
                    "name": "_perPage",
                    "type": "uint256"
                }
            ],
            "name": "getPaginatedStrategies",
            "outputs": [
                {
                    "components": [
                        {
                            "internalType": "uint256",
                            "name": "templateId",
                            "type": "uint256"
                        },
                        {
                            "internalType": "address",
                            "name": "proxy",
                            "type": "address"
                        },
                        {
                            "internalType": "bytes[][]",
                            "name": "actionData",
                            "type": "bytes[][]"
                        },
                        {
                            "internalType": "bytes[][]",
                            "name": "triggerData",
                            "type": "bytes[][]"
                        },
                        {
                            "internalType": "bool",
                            "name": "active",
                            "type": "bool"
                        },
                        {
                            "internalType": "uint256",
                            "name": "posInUserArr",
                            "type": "uint256"
                        }
                    ],
                    "internalType": "struct StrategyData.Strategy[]",
                    "name": "",
                    "type": "tuple[]"
                }
            ],
            "stateMutability": "view",
            "type": "function"
        },
        {
            "inputs": [
                {
                    "internalType": "uint256",
                    "name": "_page",
                    "type": "uint256"
                },
                {
                    "internalType": "uint256",
                    "name": "_perPage",
                    "type": "uint256"
                }
            ],
            "name": "getPaginatedTemplates",
            "outputs": [
                {
                    "components": [
                        {
                            "internalType": "string",
                            "name": "name",
                            "type": "string"
                        },
                        {
                            "internalType": "bytes32[]",
                            "name": "triggerIds",
                            "type": "bytes32[]"
                        },
                        {
                            "internalType": "bytes32[]",
                            "name": "actionIds",
                            "type": "bytes32[]"
                        },
                        {
                            "internalType": "uint8[][]",
                            "name": "paramMapping",
                            "type": "uint8[][]"
                        }
                    ],
                    "internalType": "struct StrategyData.Template[]",
                    "name": "",
                    "type": "tuple[]"
                }
            ],
            "stateMutability": "view",
            "type": "function"
        },
        {
            "inputs": [],
            "name": "getStrategies",
            "outputs": [
                {
                    "components": [
                        {
                            "internalType": "uint256",
                            "name": "templateId",
                            "type": "uint256"
                        },
                        {
                            "internalType": "address",
                            "name": "proxy",
                            "type": "address"
                        },
                        {
                            "internalType": "bytes[][]",
                            "name": "actionData",
                            "type": "bytes[][]"
                        },
                        {
                            "internalType": "bytes[][]",
                            "name": "triggerData",
                            "type": "bytes[][]"
                        },
                        {
                            "internalType": "bool",
                            "name": "active",
                            "type": "bool"
                        },
                        {
                            "internalType": "uint256",
                            "name": "posInUserArr",
                            "type": "uint256"
                        }
                    ],
                    "internalType": "struct StrategyData.Strategy[]",
                    "name": "",
                    "type": "tuple[]"
                }
            ],
            "stateMutability": "view",
            "type": "function"
        },
        {
            "inputs": [
                {
                    "internalType": "uint256",
                    "name": "_strategyId",
                    "type": "uint256"
                }
            ],
            "name": "getStrategy",
            "outputs": [
                {
                    "components": [
                        {
                            "internalType": "uint256",
                            "name": "templateId",
                            "type": "uint256"
                        },
                        {
                            "internalType": "address",
                            "name": "proxy",
                            "type": "address"
                        },
                        {
                            "internalType": "bytes[][]",
                            "name": "actionData",
                            "type": "bytes[][]"
                        },
                        {
                            "internalType": "bytes[][]",
                            "name": "triggerData",
                            "type": "bytes[][]"
                        },
                        {
                            "internalType": "bool",
                            "name": "active",
                            "type": "bool"
                        },
                        {
                            "internalType": "uint256",
                            "name": "posInUserArr",
                            "type": "uint256"
                        }
                    ],
                    "internalType": "struct StrategyData.Strategy",
                    "name": "",
                    "type": "tuple"
                }
            ],
            "stateMutability": "view",
            "type": "function"
        },
        {
            "inputs": [],
            "name": "getStrategyCount",
            "outputs": [
                {
                    "internalType": "uint256",
                    "name": "",
                    "type": "uint256"
                }
            ],
            "stateMutability": "view",
            "type": "function"
        },
        {
            "inputs": [
                {
                    "internalType": "uint256",
                    "name": "_templateId",
                    "type": "uint256"
                }
            ],
            "name": "getTemplate",
            "outputs": [
                {
                    "components": [
                        {
                            "internalType": "string",
                            "name": "name",
                            "type": "string"
                        },
                        {
                            "internalType": "bytes32[]",
                            "name": "triggerIds",
                            "type": "bytes32[]"
                        },
                        {
                            "internalType": "bytes32[]",
                            "name": "actionIds",
                            "type": "bytes32[]"
                        },
                        {
                            "internalType": "uint8[][]",
                            "name": "paramMapping",
                            "type": "uint8[][]"
                        }
                    ],
                    "internalType": "struct StrategyData.Template",
                    "name": "",
                    "type": "tuple"
                }
            ],
            "stateMutability": "view",
            "type": "function"
        },
        {
            "inputs": [],
            "name": "getTemplateCount",
            "outputs": [
                {
                    "internalType": "uint256",
                    "name": "",
                    "type": "uint256"
                }
            ],
            "stateMutability": "view",
            "type": "function"
        },
        {
            "inputs": [
                {
                    "internalType": "uint256",
                    "name": "_strategyId",
                    "type": "uint256"
                }
            ],
            "name": "getTemplateFromStrategy",
            "outputs": [
                {
                    "components": [
                        {
                            "internalType": "string",
                            "name": "name",
                            "type": "string"
                        },
                        {
                            "internalType": "bytes32[]",
                            "name": "triggerIds",
                            "type": "bytes32[]"
                        },
                        {
                            "internalType": "bytes32[]",
                            "name": "actionIds",
                            "type": "bytes32[]"
                        },
                        {
                            "internalType": "uint8[][]",
                            "name": "paramMapping",
                            "type": "uint8[][]"
                        }
                    ],
                    "internalType": "struct StrategyData.Template",
                    "name": "",
                    "type": "tuple"
                }
            ],
            "stateMutability": "view",
            "type": "function"
        },
        {
            "inputs": [],
            "name": "getTemplates",
            "outputs": [
                {
                    "components": [
                        {
                            "internalType": "string",
                            "name": "name",
                            "type": "string"
                        },
                        {
                            "internalType": "bytes32[]",
                            "name": "triggerIds",
                            "type": "bytes32[]"
                        },
                        {
                            "internalType": "bytes32[]",
                            "name": "actionIds",
                            "type": "bytes32[]"
                        },
                        {
                            "internalType": "uint8[][]",
                            "name": "paramMapping",
                            "type": "uint8[][]"
                        }
                    ],
                    "internalType": "struct StrategyData.Template[]",
                    "name": "",
                    "type": "tuple[]"
                }
            ],
            "stateMutability": "view",
            "type": "function"
        },
        {
            "inputs": [
                {
                    "internalType": "address",
                    "name": "_user",
                    "type": "address"
                }
            ],
            "name": "getUserStrategies",
            "outputs": [
                {
                    "components": [
                        {
                            "internalType": "uint256",
                            "name": "templateId",
                            "type": "uint256"
                        },
                        {
                            "internalType": "address",
                            "name": "proxy",
                            "type": "address"
                        },
                        {
                            "internalType": "bytes[][]",
                            "name": "actionData",
                            "type": "bytes[][]"
                        },
                        {
                            "internalType": "bytes[][]",
                            "name": "triggerData",
                            "type": "bytes[][]"
                        },
                        {
                            "internalType": "bool",
                            "name": "active",
                            "type": "bool"
                        },
                        {
                            "internalType": "uint256",
                            "name": "posInUserArr",
                            "type": "uint256"
                        }
                    ],
                    "internalType": "struct StrategyData.Strategy[]",
                    "name": "",
                    "type": "tuple[]"
                }
            ],
            "stateMutability": "view",
            "type": "function"
        },
        {
            "inputs": [],
            "name": "logger",
            "outputs": [
                {
                    "internalType": "contract DefisaverLogger",
                    "name": "",
                    "type": "address"
                }
            ],
            "stateMutability": "view",
            "type": "function"
        },
        {
            "inputs": [
                {
                    "internalType": "uint256",
                    "name": "_subId",
                    "type": "uint256"
                }
            ],
            "name": "removeStrategy",
            "outputs": [],
            "stateMutability": "nonpayable",
            "type": "function"
        },
        {
            "inputs": [
                {
                    "internalType": "uint256",
                    "name": "",
                    "type": "uint256"
                }
            ],
            "name": "strategies",
            "outputs": [
                {
                    "internalType": "uint256",
                    "name": "templateId",
                    "type": "uint256"
                },
                {
                    "internalType": "address",
                    "name": "proxy",
                    "type": "address"
                },
                {
                    "internalType": "bool",
                    "name": "active",
                    "type": "bool"
                },
                {
                    "internalType": "uint256",
                    "name": "posInUserArr",
                    "type": "uint256"
                }
            ],
            "stateMutability": "view",
            "type": "function"
        },
        {
            "inputs": [
                {
                    "internalType": "uint256",
                    "name": "",
                    "type": "uint256"
                }
            ],
            "name": "templates",
            "outputs": [
                {
                    "internalType": "string",
                    "name": "name",
                    "type": "string"
                }
            ],
            "stateMutability": "view",
            "type": "function"
        },
        {
            "inputs": [],
            "name": "updateCounter",
            "outputs": [
                {
                    "internalType": "uint256",
                    "name": "",
                    "type": "uint256"
                }
            ],
            "stateMutability": "view",
            "type": "function"
        },
        {
            "inputs": [
                {
                    "internalType": "uint256",
                    "name": "_startegyId",
                    "type": "uint256"
                },
                {
                    "internalType": "uint256",
                    "name": "_templateId",
                    "type": "uint256"
                },
                {
                    "internalType": "bool",
                    "name": "_active",
                    "type": "bool"
                },
                {
                    "internalType": "bytes[][]",
                    "name": "_actionData",
                    "type": "bytes[][]"
                },
                {
                    "internalType": "bytes[][]",
                    "name": "_triggerData",
                    "type": "bytes[][]"
                }
            ],
            "name": "updateStrategy",
            "outputs": [],
            "stateMutability": "nonpayable",
            "type": "function"
        },
        {
            "inputs": [
                {
                    "internalType": "address",
                    "name": "_user",
                    "type": "address"
                }
            ],
            "name": "userHasStrategies",
            "outputs": [
                {
                    "internalType": "bool",
                    "name": "",
                    "type": "bool"
                }
            ],
            "stateMutability": "view",
            "type": "function"
        },
        {
            "inputs": [
                {
                    "internalType": "address",
                    "name": "",
                    "type": "address"
                },
                {
                    "internalType": "uint256",
                    "name": "",
                    "type": "uint256"
                }
            ],
            "name": "usersPos",
            "outputs": [
                {
                    "internalType": "uint256",
                    "name": "",
                    "type": "uint256"
                }
            ],
            "stateMutability": "view",
            "type": "function"
        }
    ],
    "bytecode": "608060405234801561001057600080fd5b5061344b806100206000396000f3fe608060405234801561001057600080fd5b506004361061012c5760003560e01c80638644faf9116100ad578063ccc8251211610071578063ccc825121461026e578063cfc0cc341461028e578063d574ea3d146102ae578063e64ae119146102d1578063f24ccbfe146102d95761012c565b80638644faf91461020b578063b49a60bb1461021e578063b6be214114610226578063bc5256521461023b578063c0cbbca61461025b5761012c565b80635016959a116100f45780635016959a1461019d5780635358b27b146101a55780636b71f6ff146101b8578063754bf9a2146101d857806379f02fd4146101f85761012c565b80631687fe8e14610131578063231906f11461014f578063253c671e1461016257806331543cf41461017557806331e19cfa14610195575b600080fd5b6101396102ee565b60405161014691906133a4565b60405180910390f35b61013961015d366004612d39565b6102f4565b610139610170366004612bbe565b610502565b610188610183366004612d21565b610673565b6040516101469190613391565b6101396108a3565b6101396108a9565b6101886101b3366004612d21565b6108af565b6101cb6101c6366004612db4565b610b00565b6040516101469190613200565b6101eb6101e6366004612b74565b610e45565b60405161014691906132b3565b6101cb610206366004612b74565b610e62565b610139610219366004612b95565b6111df565b6101cb611210565b610239610234366004612dd5565b6114e1565b005b61024e610249366004612d21565b611641565b60405161014691906132d2565b610239610269366004612d21565b6116f4565b61028161027c366004612db4565b611bbe565b6040516101469190613260565b6102a161029c366004612d21565b611e80565b604051610146919061337e565b6102c16102bc366004612d21565b612123565b60405161014694939291906133ad565b610281612169565b6102e16123b5565b60405161014691906132be565b60035481565b6040805160c081018252858152336020808301828152838501878152606085018790528815156080860152600093845260028352948320546000190160a0850152825460018101845583805284517f290decd9548b62a8d60345a988386fc84ba6bc95484008f6362f93160ef3e563600690920291820190815591517f290decd9548b62a8d60345a988386fc84ba6bc95484008f6362f93160ef3e564820180546001600160a01b0319166001600160a01b0390921691909117905594518051939591936103eb937f290decd9548b62a8d60345a988386fc84ba6bc95484008f6362f93160ef3e5659093019291909101906124b2565b50606082015180516104079160038401916020909101906124b2565b50608082015160048201805460ff191691151591909117905560a09091015160059091015533600081815260026020908152604080832083548154600181810184559286528486206000199283019101556003805490920190915592549051735c55b921f590a89c1ebe84df170e655a82b621269463d061ce50943094919361049393910191016133a4565b6040516020818303038152906040526040518463ffffffff1660e01b81526004016104c09392919061310a565b600060405180830381600087803b1580156104da57600080fd5b505af11580156104ee573d6000803e3d6000fd5b505060005460001901979650505050505050565b60408051608081018252858152602080820186905291810184905260608101839052600180548082018255600091825282518051929460049092027fb10e2d527612073b26eecdfd717e6a320cf44b4afac2b0732d9fcbe2b7fa0cf6019261056d928492019061250f565b5060208281015180516105869260018501920190612597565b50604082015180516105a2916002840191602090910190612597565b50606082015180516105be9160038401916020909101906125d1565b505060038054600190810190915554604051735c55b921f590a89c1ebe84df170e655a82b62126925063d061ce50913091339161060491600019909101906020016133a4565b6040516020818303038152906040526040518463ffffffff1660e01b81526004016106319392919061315c565b600060405180830381600087803b15801561064b57600080fd5b505af115801561065f573d6000803e3d6000fd5b505060015460001901979650505050505050565b61067b61262a565b6001828154811061068857fe5b600091825260209182902060408051600493909302909101805460026001821615610100026000190190911604601f8101859004909402830160a0908101909252608083018481529293909284929091849184018282801561072b5780601f106107005761010080835404028352916020019161072b565b820191906000526020600020905b81548152906001019060200180831161070e57829003601f168201915b505050505081526020016001820180548060200260200160405190810160405280929190818152602001828054801561078357602002820191906000526020600020905b81548152602001906001019080831161076f575b50505050508152602001600282018054806020026020016040519081016040528092919081815260200182805480156107db57602002820191906000526020600020905b8154815260200190600101908083116107c7575b5050505050815260200160038201805480602002602001604051908101604052809291908181526020016000905b828210156108935760008481526020908190208301805460408051828502810185019091528181529283018282801561087f57602002820191906000526020600020906000905b825461010083900a900460ff168152602060019283018181049485019490930390920291018084116108505790505b505050505081526020019060010190610809565b505050508152505090505b919050565b60005490565b60015490565b6108b761262a565b60008083815481106108c557fe5b9060005260206000209060060201600001549050600181815481106108e657fe5b600091825260209182902060408051600493909302909101805460026001821615610100026000190190911604601f8101859004909402830160a090810190925260808301848152929390928492909184918401828280156109895780601f1061095e57610100808354040283529160200191610989565b820191906000526020600020905b81548152906001019060200180831161096c57829003601f168201915b50505050508152602001600182018054806020026020016040519081016040528092919081815260200182805480156109e157602002820191906000526020600020905b8154815260200190600101908083116109cd575b5050505050815260200160028201805480602002602001604051908101604052809291908181526020018280548015610a3957602002820191906000526020600020905b815481526020019060010190808311610a25575b5050505050815260200160038201805480602002602001604051908101604052809291908181526020016000905b82821015610af157600084815260209081902083018054604080518285028101850190915281815292830182828015610add57602002820191906000526020600020906000905b825461010083900a900460ff16815260206001928301818104948501949093039092029101808411610aae5790505b505050505081526020019060010190610a67565b50505091525090949350505050565b6060808267ffffffffffffffff81118015610b1a57600080fd5b50604051908082528060200260200182016040528015610b5457816020015b610b41612652565b815260200190600190039081610b395790505b50805190915084840290818501908111610b6e5780610b71565b82515b90506000825b82811015610e395760008181548110610b8c57fe5b600091825260208083206040805160c08101825260069094029091018054845260018101546001600160a01b031684840152600281018054835181860281018601855281815295969295938701949192909184015b82821015610cd357838290600052602060002001805480602002602001604051908101604052809291908181526020016000905b82821015610cc05760008481526020908190208301805460408051601f6002600019610100600187161502019094169390930492830185900485028101850190915281815292830182828015610cac5780601f10610c8157610100808354040283529160200191610cac565b820191906000526020600020905b815481529060010190602001808311610c8f57829003601f168201915b505050505081526020019060010190610c15565b5050505081526020019060010190610be1565b50505050815260200160038201805480602002602001604051908101604052809291908181526020016000905b82821015610df257838290600052602060002001805480602002602001604051908101604052809291908181526020016000905b82821015610ddf5760008481526020908190208301805460408051601f6002600019610100600187161502019094169390930492830185900485028101850190915281815292830182828015610dcb5780601f10610da057610100808354040283529160200191610dcb565b820191906000526020600020905b815481529060010190602001808311610dae57829003601f168201915b505050505081526020019060010190610d34565b5050505081526020019060010190610d00565b50505090825250600482015460ff16151560208201526005909101546040909101528551869084908110610e2257fe5b602090810291909101015260019182019101610b77565b50929695505050505050565b6001600160a01b0316600090815260026020526040902054151590565b6001600160a01b038116600090815260026020526040902054606090819067ffffffffffffffff81118015610e9657600080fd5b50604051908082528060200260200182016040528015610ed057816020015b610ebd612652565b815260200190600190039081610eb55790505b50905060005b6001600160a01b0384166000908152600260205260409020548110156111d8576001600160a01b0384166000908152600260205260408120805483908110610f1a57fe5b906000526020600020015481548110610f2f57fe5b600091825260208083206040805160c08101825260069094029091018054845260018101546001600160a01b031684840152600281018054835181860281018601855281815295969295938701949192909184015b8282101561107657838290600052602060002001805480602002602001604051908101604052809291908181526020016000905b828210156110635760008481526020908190208301805460408051601f600260001961010060018716150201909416939093049283018590048502810185019091528181529283018282801561104f5780601f106110245761010080835404028352916020019161104f565b820191906000526020600020905b81548152906001019060200180831161103257829003601f168201915b505050505081526020019060010190610fb8565b5050505081526020019060010190610f84565b50505050815260200160038201805480602002602001604051908101604052809291908181526020016000905b8282101561119557838290600052602060002001805480602002602001604051908101604052809291908181526020016000905b828210156111825760008481526020908190208301805460408051601f600260001961010060018716150201909416939093049283018590048502810185019091528181529283018282801561116e5780601f106111435761010080835404028352916020019161116e565b820191906000526020600020905b81548152906001019060200180831161115157829003601f168201915b5050505050815260200190600101906110d7565b50505050815260200190600101906110a3565b50505090825250600482015460ff161515602082015260059091015460409091015282518390839081106111c557fe5b6020908102919091010152600101610ed6565b5092915050565b600260205281600052604060002081815481106111fb57600080fd5b90600052602060002001600091509150505481565b60606000805480602002602001604051908101604052809291908181526020016000905b828210156114d857600084815260208082206040805160c081018252600687029092018054835260018101546001600160a01b03168385015260028101805483518187028101870185528181529496929593870194939192909184015b8282101561138357838290600052602060002001805480602002602001604051908101604052809291908181526020016000905b828210156113705760008481526020908190208301805460408051601f600260001961010060018716150201909416939093049283018590048502810185019091528181529283018282801561135c5780601f106113315761010080835404028352916020019161135c565b820191906000526020600020905b81548152906001019060200180831161133f57829003601f168201915b5050505050815260200190600101906112c5565b5050505081526020019060010190611291565b50505050815260200160038201805480602002602001604051908101604052809291908181526020016000905b828210156114a257838290600052602060002001805480602002602001604051908101604052809291908181526020016000905b8282101561148f5760008481526020908190208301805460408051601f600260001961010060018716150201909416939093049283018590048502810185019091528181529283018282801561147b5780601f106114505761010080835404028352916020019161147b565b820191906000526020600020905b81548152906001019060200180831161145e57829003601f168201915b5050505050815260200190600101906113e4565b50505050815260200190600101906113b0565b50505090825250600482015460ff1615156020808301919091526005909201546040909101529082526001929092019101611234565b50505050905090565b60008086815481106114ef57fe5b6000918252602090912060069091020160018101549091506001600160a01b03166115355760405162461bcd60e51b815260040161152c90613310565b60405180910390fd5b60018101546001600160a01b031633146115615760405162461bcd60e51b815260040161152c90613347565b84815560048101805460ff1916851515179055825161158990600283019060208601906124b2565b50815161159f90600383019060208501906124b2565b50600380546001019055604051735c55b921f590a89c1ebe84df170e655a82b621269063d061ce5090309033906115da908b906020016133a4565b6040516020818303038152906040526040518463ffffffff1660e01b8152600401611607939291906131ae565b600060405180830381600087803b15801561162157600080fd5b505af1158015611635573d6000803e3d6000fd5b50505050505050505050565b6001818154811061165157600080fd5b60009182526020918290206004919091020180546040805160026001841615610100026000190190931692909204601f8101859004850283018501909152808252919350918391908301828280156116ea5780601f106116bf576101008083540402835291602001916116ea565b820191906000526020600020905b8154815290600101906020018083116116cd57829003601f168201915b5050505050905081565b6116fc612652565b6000828154811061170957fe5b600091825260208083206040805160c08101825260069094029091018054845260018101546001600160a01b031684840152600281018054835181860281018601855281815295969295938701949192909184015b8282101561185057838290600052602060002001805480602002602001604051908101604052809291908181526020016000905b8282101561183d5760008481526020908190208301805460408051601f60026000196101006001871615020190941693909304928301859004850281018501909152818152928301828280156118295780601f106117fe57610100808354040283529160200191611829565b820191906000526020600020905b81548152906001019060200180831161180c57829003601f168201915b505050505081526020019060010190611792565b505050508152602001906001019061175e565b50505050815260200160038201805480602002602001604051908101604052809291908181526020016000905b8282101561196f57838290600052602060002001805480602002602001604051908101604052809291908181526020016000905b8282101561195c5760008481526020908190208301805460408051601f60026000196101006001871615020190941693909304928301859004850281018501909152818152928301828280156119485780601f1061191d57610100808354040283529160200191611948565b820191906000526020600020905b81548152906001019060200180831161192b57829003601f168201915b5050505050815260200190600101906118b1565b505050508152602001906001019061187d565b50505090825250600482015460ff1615156020808301919091526005909201546040909101528101519091506001600160a01b03166119c05760405162461bcd60e51b815260040161152c90613310565b80602001516001600160a01b0316336001600160a01b0316146119f55760405162461bcd60e51b815260040161152c90613347565b60005460a082015160001990910190611a0f9033906123cd565b60008181548110611a1c57fe5b906000526020600020906006020160008481548110611a3757fe5b60009182526020909120825460069092020190815560018083015490820180546001600160a01b0319166001600160a01b0390921691909117905560028083018054611a869284019190612693565b5060038281018054611a9b9284019190612693565b50600482810154908201805460ff191660ff90921615159190911790556005918201549101556000805480611acc57fe5b6000828152602081206006600019909301928302018181556001810180546001600160a01b031916905590611b0460028301826126df565b611b126003830160006126df565b5060048101805460ff1916905560006005909101559055604051735c55b921f590a89c1ebe84df170e655a82b621269063d061ce509030903390611b5a9088906020016133a4565b6040516020818303038152906040526040518463ffffffff1660e01b8152600401611b87939291906130b2565b600060405180830381600087803b158015611ba157600080fd5b505af1158015611bb5573d6000803e3d6000fd5b50505050505050565b6060808267ffffffffffffffff81118015611bd857600080fd5b50604051908082528060200260200182016040528015611c1257816020015b611bff61262a565b815260200190600190039081611bf75790505b50805190915084840290818501908111611c2c5780611c2f565b82515b90506000825b82811015610e395760018181548110611c4a57fe5b600091825260209182902060408051600493909302909101805460026001821615610100026000190190911604601f8101859004909402830160a09081019092526080830184815292939092849290918491840182828015611ced5780601f10611cc257610100808354040283529160200191611ced565b820191906000526020600020905b815481529060010190602001808311611cd057829003601f168201915b5050505050815260200160018201805480602002602001604051908101604052809291908181526020018280548015611d4557602002820191906000526020600020905b815481526020019060010190808311611d31575b5050505050815260200160028201805480602002602001604051908101604052809291908181526020018280548015611d9d57602002820191906000526020600020905b815481526020019060010190808311611d89575b5050505050815260200160038201805480602002602001604051908101604052809291908181526020016000905b82821015611e5557600084815260209081902083018054604080518285028101850190915281815292830182828015611e4157602002820191906000526020600020906000905b825461010083900a900460ff16815260206001928301818104948501949093039092029101808411611e125790505b505050505081526020019060010190611dcb565b5050505081525050858381518110611e6957fe5b602090810291909101015260019182019101611c35565b611e88612652565b60008281548110611e9557fe5b600091825260208083206040805160c08101825260069094029091018054845260018101546001600160a01b031684840152600281018054835181860281018601855281815295969295938701949192909184015b82821015611fdc57838290600052602060002001805480602002602001604051908101604052809291908181526020016000905b82821015611fc95760008481526020908190208301805460408051601f6002600019610100600187161502019094169390930492830185900485028101850190915281815292830182828015611fb55780601f10611f8a57610100808354040283529160200191611fb5565b820191906000526020600020905b815481529060010190602001808311611f9857829003601f168201915b505050505081526020019060010190611f1e565b5050505081526020019060010190611eea565b50505050815260200160038201805480602002602001604051908101604052809291908181526020016000905b828210156120fb57838290600052602060002001805480602002602001604051908101604052809291908181526020016000905b828210156120e85760008481526020908190208301805460408051601f60026000196101006001871615020190941693909304928301859004850281018501909152818152928301828280156120d45780601f106120a9576101008083540402835291602001916120d4565b820191906000526020600020905b8154815290600101906020018083116120b757829003601f168201915b50505050508152602001906001019061203d565b5050505081526020019060010190612009565b50505090825250600482015460ff161515602082015260059091015460409091015292915050565b6000818154811061213357600080fd5b600091825260209091206006909102018054600182015460048301546005909301549193506001600160a01b03169160ff169084565b60606001805480602002602001604051908101604052809291908181526020016000905b828210156114d85760008481526020908190206040805160048602909201805460026001821615610100026000190190911604601f8101859004909402830160a090810190925260808301848152929390928492909184918401828280156122365780601f1061220b57610100808354040283529160200191612236565b820191906000526020600020905b81548152906001019060200180831161221957829003601f168201915b505050505081526020016001820180548060200260200160405190810160405280929190818152602001828054801561228e57602002820191906000526020600020905b81548152602001906001019080831161227a575b50505050508152602001600282018054806020026020016040519081016040528092919081815260200182805480156122e657602002820191906000526020600020905b8154815260200190600101908083116122d2575b5050505050815260200160038201805480602002602001604051908101604052809291908181526020016000905b8282101561239e5760008481526020908190208301805460408051828502810185019091528181529283018282801561238a57602002820191906000526020600020906000905b825461010083900a900460ff1681526020600192830181810494850194909303909202910180841161235b5790505b505050505081526020019060010190612314565b50505050815250508152602001906001019061218d565b735c55b921f590a89c1ebe84df170e655a82b6212681565b6001600160a01b0382166000908152600260205260409020546124025760405162461bcd60e51b815260040161152c906132e5565b6001600160a01b03821660009081526002602052604090208054600019810191908290811061242d57fe5b906000526020600020015460026000856001600160a01b03166001600160a01b03168152602001908152602001600020838154811061246857fe5b60009182526020808320909101929092556001600160a01b038516815260029091526040902080548061249757fe5b60019003818190600052602060002001600090559055505050565b8280548282559060005260206000209081019282156124ff579160200282015b828111156124ff57825180516124ef918491602090910190612700565b50916020019190600101906124d2565b5061250b929150612759565b5090565b828054600181600116156101000203166002900490600052602060002090601f016020900481019282612545576000855561258b565b82601f1061255e57805160ff191683800117855561258b565b8280016001018555821561258b579182015b8281111561258b578251825591602001919060010190612570565b5061250b929150612776565b82805482825590600052602060002090810192821561258b579160200282018281111561258b578251825591602001919060010190612570565b82805482825590600052602060002090810192821561261e579160200282015b8281111561261e578251805161260e91849160209091019061278b565b50916020019190600101906125f1565b5061250b92915061282c565b6040518060800160405280606081526020016060815260200160608152602001606081525090565b6040518060c001604052806000815260200160006001600160a01b031681526020016060815260200160608152602001600015158152602001600081525090565b8280548282559060005260206000209081019282156124ff5760005260206000209182015b828111156124ff5782546126cf9083908590612849565b50916001019190600101906126b8565b50805460008255906000526020600020908101906126fd9190612759565b50565b82805482825590600052602060002090810192821561274d579160200282015b8281111561274d578251805161273d91849160209091019061250f565b5091602001919060010190612720565b5061250b9291506128a7565b8082111561250b57600061276d82826128c4565b50600101612759565b5b8082111561250b5760008155600101612777565b82805482825590600052602060002090601f0160209004810192821561258b5791602002820160005b838211156127f257835183826101000a81548160ff021916908360ff16021790555092602001926001016020816000010492830192600103026127b4565b801561281f5782816101000a81549060ff02191690556001016020816000010492830192600103026127f2565b505061250b929150612776565b8082111561250b57600061284082826128e2565b5060010161282c565b82805482825590600052602060002090810192821561274d5760005260206000209182015b8281111561274d5782829080546001816001161561010002031660029004612897929190612907565b509160010191906001019061286e565b8082111561250b5760006128bb828261298a565b506001016128a7565b50805460008255906000526020600020908101906126fd91906128a7565b50805460008255601f0160209004906000526020600020908101906126fd9190612776565b828054600181600116156101000203166002900490600052602060002090601f01602090048101928261293d576000855561258b565b82601f1061294e578054855561258b565b8280016001018555821561258b57600052602060002091601f016020900482015b8281111561258b57825482559160010191906001019061296f565b50805460018160011615610100020316600290046000825580601f106129b057506126fd565b601f0160209004906000526020600020908101906126fd9190612776565b80356001600160a01b038116811461089e57600080fd5b600082601f8301126129f5578081fd5b8135612a08612a03826133f7565b6133d3565b818152915060208083019084810160005b84811015612a94578135870188603f820112612a3457600080fd5b83810135612a44612a03826133f7565b81815285810190604084810160005b85811015612a7c57612a6a8f8484358a0101612b0d565b85529389019390890190600101612a53565b50505087525050509282019290820190600101612a19565b505050505092915050565b600082601f830112612aaf578081fd5b8135612abd612a03826133f7565b818152915060208083019084810181840286018201871015612ade57600080fd5b60005b84811015612a9457813584529282019290820190600101612ae1565b8035801515811461089e57600080fd5b600082601f830112612b1d578081fd5b813567ffffffffffffffff811115612b3157fe5b612b44601f8201601f19166020016133d3565b9150808252836020828501011115612b5b57600080fd5b8060208401602084013760009082016020015292915050565b600060208284031215612b85578081fd5b612b8e826129ce565b9392505050565b60008060408385031215612ba7578081fd5b612bb0836129ce565b946020939093013593505050565b60008060008060808587031215612bd3578182fd5b67ffffffffffffffff8086351115612be9578283fd5b612bf68787358801612b0d565b9450602086013581811115612c09578384fd5b612c1588828901612a9f565b945050604086013581811115612c29578384fd5b612c3588828901612a9f565b935050606086013581811115612c49578283fd5b86019050601f81018713612c5b578182fd5b612c68612a0382356133f7565b81358152602080820191908301845b8435811015612d1057813585018b603f820112612c92578687fd5b6020810135612ca3612a03826133f7565b80828252602082019150604084018f6040602086028701011115612cc5578a8bfd5b8a94505b83851015612cf757803560ff811614612ce0578a8bfd5b803583526001949094019360209283019201612cc9565b5087525050602094850194929092019150600101612c77565b505080935050505092959194509250565b600060208284031215612d32578081fd5b5035919050565b60008060008060808587031215612d4e578384fd5b84359350612d5e60208601612afd565b9250604085013567ffffffffffffffff80821115612d7a578384fd5b612d86888389016129e5565b93506060870135915080821115612d9b578283fd5b50612da8878288016129e5565b91505092959194509250565b60008060408385031215612dc6578182fd5b50508035926020909101359150565b600080600080600060a08688031215612dec578081fd5b8535945060208601359350612e0360408701612afd565b9250606086013567ffffffffffffffff80821115612e1f578283fd5b612e2b89838a016129e5565b93506080880135915080821115612e40578283fd5b50612e4d888289016129e5565b9150509295509295909350565b6000815180845260208085018081965082840281019150828601855b85811015612edf578284038952815180518086529086019086860190878102870188018a5b82811015612ec957601f19898303018452612eb7828651612f26565b948a0194938a01939150600101612e9b565b509b88019b965050509185019150600101612e76565b5091979650505050505050565b6000815180845260208085019450808401835b83811015612f1b57815187529582019590820190600101612eff565b509495945050505050565b60008151808452815b81811015612f4b57602081850181015186830182015201612f2f565b81811115612f5c5782602083870101525b50601f01601f19169290920160200192915050565b60008151835260018060a01b036020830151166020840152604082015160c06040850152612fa260c0850182612e5a565b905060608301518482036060860152612fbb8282612e5a565b91505060808301511515608085015260a083015160a08501528091505092915050565b6000815160808452612ff36080850182612f26565b90506020808401518583038287015261300c8382612eec565b925050604084015185830360408701526130268382612eec565b925050606084015185830360608701528281518085528385019150838482028601018484019350865b828110156130a557868203601f190184528451805180845290870190878401908a5b8181101561309057835160ff1683529289019291890191600101613071565b5050958701959487019492505060010161304f565b5098975050505050505050565b6001600160a01b03848116825283166020820152608060408201819052600b908201526a556e73756273637269626560a81b60a082015260c06060820181905260009061310190830184612f26565b95945050505050565b6001600160a01b03848116825283166020820152608060408201819052600e908201526d437265617465537472617465677960901b60a082015260c06060820181905260009061310190830184612f26565b6001600160a01b03848116825283166020820152608060408201819052600e908201526d43726561746554656d706c61746560901b60a082015260c06060820181905260009061310190830184612f26565b6001600160a01b03848116825283166020820152608060408201819052600e908201526d557064617465537472617465677960901b60a082015260c06060820181905260009061310190830184612f26565b6000602080830181845280855180835260408601915060408482028701019250838701855b8281101561325357603f19888603018452613241858351612f71565b94509285019290850190600101613225565b5092979650505050505050565b6000602080830181845280855180835260408601915060408482028701019250838701855b8281101561325357603f198886030184526132a1858351612fde565b94509285019290850190600101613285565b901515815260200190565b6001600160a01b0391909116815260200190565b600060208252612b8e6020830184612f26565b6020808252601190820152704e6f207573657220706f736974696f6e7360781b604082015260600190565b60208082526017908201527f537472617465677920646f6573206e6f74206578697374000000000000000000604082015260600190565b6020808252601d908201527f6d73672e73656e646572206e6f74207374726174656779206f776e6572000000604082015260600190565b600060208252612b8e6020830184612f71565b600060208252612b8e6020830184612fde565b90815260200190565b9384526001600160a01b0392909216602084015215156040830152606082015260800190565b60405181810167ffffffffffffffff811182821017156133ef57fe5b604052919050565b600067ffffffffffffffff82111561340b57fe5b506020908102019056fea2646970667358221220b507785e8e7b9ec1aff10e159f7df057e81ff728c0280b2c0aa31f4254639d2064736f6c63430007040033",
    "sourcePath": "/Users/nenadpalinkasevic/Desktop/blockchain/defisaver-v3-contracts/contracts/core/Subscriptions.sol",
    "compiler": {
        "name": "solc",
        "version": "0.7.4+commit.3f05b770"
    },
    "functionHashes": {
        "createStrategy(uint256,bool,bytes[][],bytes[][])": "231906f1",
        "createTemplate(string,bytes32[],bytes32[],uint8[][])": "253c671e",
        "getPaginatedStrategies(uint256,uint256)": "6b71f6ff",
        "getPaginatedTemplates(uint256,uint256)": "ccc82512",
        "getStrategies()": "b49a60bb",
        "getStrategy(uint256)": "cfc0cc34",
        "getStrategyCount()": "31e19cfa",
        "getTemplate(uint256)": "31543cf4",
        "getTemplateCount()": "5016959a",
        "getTemplateFromStrategy(uint256)": "5358b27b",
        "getTemplates()": "e64ae119",
        "getUserStrategies(address)": "79f02fd4",
        "logger()": "f24ccbfe",
        "removeStrategy(uint256)": "c0cbbca6",
        "strategies(uint256)": "d574ea3d",
        "templates(uint256)": "bc525652",
        "updateCounter()": "1687fe8e",
        "updateStrategy(uint256,uint256,bool,bytes[][],bytes[][])": "b6be2141",
        "userHasStrategies(address)": "754bf9a2",
        "usersPos(address,uint256)": "8644faf9"
    },
    "gasEstimates": {
        "creation": {
            "codeDepositCost": "2677400",
            "executionCost": "2907",
            "totalCost": "2680307"
        },
        "external": {
            "createStrategy(uint256,bool,bytes[][],bytes[][])": "infinite",
            "createTemplate(string,bytes32[],bytes32[],uint8[][])": "infinite",
            "getPaginatedStrategies(uint256,uint256)": "infinite",
            "getPaginatedTemplates(uint256,uint256)": "infinite",
            "getStrategies()": "infinite",
            "getStrategy(uint256)": "infinite",
            "getStrategyCount()": "1140",
            "getTemplate(uint256)": "infinite",
            "getTemplateCount()": "1051",
            "getTemplateFromStrategy(uint256)": "infinite",
            "getTemplates()": "infinite",
            "getUserStrategies(address)": "infinite",
            "logger()": "362",
            "removeStrategy(uint256)": "infinite",
            "strategies(uint256)": "4629",
            "templates(uint256)": "infinite",
            "updateCounter()": "1052",
            "updateStrategy(uint256,uint256,bool,bytes[][],bytes[][])": "infinite",
            "userHasStrategies(address)": "1371",
            "usersPos(address,uint256)": "2188"
        },
        "internal": {
            "_removeUserPos(address,uint256)": "infinite"
        }
    }
}